S01700004763634170706C69636174696F6E312E737265635B
S11300000C942A000C9447000C9463010C94470050
S11300100C9447000C9447000C9447000C94470040
S11300200C9447000C9447000C9447000C94470030
S11300300C9447000C9447000C9447000C94470020
S11300400C9447000C9447000C9447000C94470010
S11300500C94470011241FBECFE5D8E0DEBFCDBF0E
S113006010E0A0E6B0E0ECEEF9E002C005900D92DD
S1130070AA37B107D9F720E0AAE7B0E001C01D9282
S1130080A238B207E1F70E94E3030C94F4040C9441
S11300900000CF93DF93C82FD62F40E00E946F005B
S11300A06D2F8C2F0E945101DF91CF910895809183
S11300B06800883081F01092600010926100109204
S11300C06200109263001092640010926500109216
S11300D066001092670088E08093680008954423C6
S11300E0B9F1413009F06BC0813089F028F08230D9
S11300F0C9F0833011F108952AB381E090E002C081
S1130100880F991F6A95E2F7822B8ABB089527B35B
S113011081E090E002C0880F991F6A95E2F7822B74
S113012087BB089524B381E090E002C0880F991F33
S11301306A95E2F7822B84BB089521B381E090E0B5
S113014002C0880F991F6A95E2F7822B81BB08953C
S1130150813091F028F08230D9F0833029F108956C
S11301602AB381E090E002C0880F991F6A95E2F7F4
S1130170809582238ABB089527B381E090E002C072
S1130180880F991F6A95E2F78095822387BB0895AB
S113019024B381E090E002C0880F991F6A95E2F7CA
S11301A08095822384BB089521B381E090E002C04E
S11301B0880F991F6A95E2F78095822381BB089581
S11301C04423B9F1413009F06BC0813089F028F043
S11301D08230C9F0833011F108952BB381E090E0AF
S11301E002C0880F991F6A95E2F7822B8BBB089592
S11301F028B381E090E002C0880F991F6A95E2F766
S1130200822B88BB089525B381E090E002C0880F5B
S1130210991F6A95E2F7822B85BB089522B381E08A
S113022090E002C0880F991F6A95E2F7822B82BB87
S11302300895813091F028F08230D9F0833029F18B
S113024008952BB381E090E002C0880F991F6A954E
S1130250E2F7809582238BBB089528B381E090E078
S113026002C0880F991F6A95E2F78095822388BBA4
S1130270089525B381E090E002C0880F991F6A9524
S1130280E2F78095822385BB089522B381E090E054
S113029002C0880F991F6A95E2F78095822382BB7A
S11302A00895089508958FB780688FBF08950E94B8
S11302B053018BB780688BBF85B7886085BF85B7CE
S11302C08B7F85BF08951F920F920FB60F92112452
S11302D02F933F934F935F936F937F938F939F934A
S11302E0AF93BF93EF93FF930E945700FF91EF9159
S11302F0BF91AF919F918F917F916F915F914F913A
S11303003F912F910F900FBE0F901F901895CF9390
S1130310C82F40E063E080E00E94E0008FE99FE0A6
S11303200197F1F700C00000C4FB442740F960E0E6
S113033081E00E94E000C5FB442740F961E081E0D0
S11303400E94E000C6FB442740F962E081E00E947D
S1130350E0004C2F441F4427441F64E081E00E94C6
S1130360E0008FE99FE00197F1F700C0000041E051
S113037062E080E00E94E0008FE99FE00197F1F7DE
S113038000C0000040E062E080E00E94E0008FE9ED
S11303909FE00197F1F700C000004C2F417060E02E
S11303A081E00E94E000C1FB442740F961E081E064
S11303B00E94E000C2FB442740F962E081E00E9411
S11303C0E000C3FB442740F964E081E00E94E000C0
S11303D08FE99FE00197F1F700C0000041E062E07F
S11303E080E00E94E0008FE99FE00197F1F700C0F0
S11303F0000040E062E080E00E94E0008FE19EE4C3
S11304000197F1F700C00000CF91089541E063E047
S113041080E00E946F0041E062E080E00E946F0093
S113042041E060E081E00E946F0041E061E081E032
S11304300E946F0041E062E081E00E946F0041E0B1
S113044064E081E00E946F008FE99FE00197F1F77B
S113045000C0000088E20E9487018FE99FE00197B5
S1130460F1F700C0000081E00E9487018FE99FE05E
S11304700197F1F700C000008FE00E9487018FE927
S11304809FE00197F1F700C000000895CF93C82FB3
S113049041E063E080E00E94E0008FE99FE0019783
S11304A0F1F700C00000C4FB442740F960E081E09C
S11304B00E94E000C5FB442740F961E081E00E940E
S11304C0E000C6FB442740F962E081E00E94E000BE
S11304D04C2F441F4427441F64E081E00E94E00045
S11304E08FE99FE00197F1F700C0000041E062E06E
S11304F080E00E94E0008FE99FE00197F1F700C0DF
S1130500000040E062E080E00E94E0008FE99FE0AC
S11305100197F1F700C000004C2F417060E081E0CA
S11305200E94E000C1FB442740F961E081E00E94A1
S1130530E000C2FB442740F962E081E00E94E00051
S1130540C3FB442740F964E081E00E94E0008FE9A6
S11305509FE00197F1F700C0000041E062E080E015
S11305600E94E0008FE99FE00197F1F700C00000CE
S113057040E062E080E00E94E0008FE19EE40197A9
S1130580F1F700C00000CF9108950F931F93CF930C
S11305908C01C0E003C00E944602CF5FF801EC0F5B
S11305A0F11D80818111F7CFCF911F910F91089593
S11305B081E00E948701089541E064E080E00E94A8
S11305C06F0041E067E081E00E946F0041E065E078
S11305D080E00E946F0041E066E080E00E946F00CE
S11305E00895813091F028F08230A9F0833039F0F9
S11305F0089541E064E080E00E94E000089541E055
S113060067E081E00E94E000089541E065E080E059
S11306100E94E000089541E066E080E00E94E0006E
S11306200895813091F028F08230A9F0833039F0B8
S1130630089540E064E080E00E94E000089540E016
S113064067E081E00E94E000089540E065E080E01A
S11306500E94E000089540E066E080E00E94E0002F
S11306600895CF93DF93813009F459C030F082307C
S113067009F47EC0833051F1A3C041E064E080E01E
S11306800E946F00C0E0D0E01DC041E064E080E063
S11306900E94E0002FEF83EC99E0215080409040CD
S11306A0E1F700C0000040E064E080E00E94E00068
S11306B02FEF83EC99E0215080409040E1F700C097
S11306C000002196CC30D10504F37AC041E067E004
S11306D081E00E946F00C0E0D0E01DC041E067E00F
S11306E081E00E94E0002FEF83EC99E021508040EC
S11306F09040E1F700C0000040E067E081E00E9424
S1130700E0002FEF83EC99E0215080409040E1F726
S113071000C000002196CC30D10504F351C041E063
S113072065E080E00E946F00C0E0D0E01DC041E0C1
S113073065E080E00E94E0002FEF83EC99E0215017
S113074080409040E1F700C0000040E065E080E0B8
S11307500E94E0002FEF83EC99E02150804090400C
S1130760E1F700C000002196CC30D10504F328C085
S113077041E066E080E00E946F00C0E0D0E01DC070
S113078041E066E080E00E94E0002FEF83EC99E016
S1130790215080409040E1F700C0000040E066E056
S11307A080E00E94E0002FEF83EC99E0215080402C
S11307B09040E1F700C000002196CC30D10504F34D
S11307C0DF91CF9108950E94E8030E947504FDCF44
S11307D00E9453010E94570187E590E00E94520154
S11307E00E9406020E94DC0263E083E00E9449004A
S11307F00895AF92BF92CF92DF92EF92FF920F9340
S11308001F9310927A0010927B0010927C00109239
S11308107D0010927E0010927F0010928000109252
S1130820810023C020917A0030917B0040917C00AC
S113083050917D0060917E0070917F0080918000D6
S113084090918100A1E00E94DF0420937A0030930C
S11308507B0040937C0050937D0060937E007093F6
S11308607F00809380009093810020917A003091E2
S11308707B0040917C0050917D0060917E007091DE
S11308807F008091800090918100A0906000B090E2
S11308906100C0906200D0906300E0906400F0902A
S11308A0650000916600109167000E94EB040CF44F
S11308B0B9CF80E48093600082E4809361008FE08C
S11308C0809362001092630010926400109265009D
S11308D010926600109267001F910F91FF90EF90A5
S11308E0DF90CF90BF90AF9008950E94D80289E620
S11308F090E00E94C50280E00E94F1020E94F90388
S113090080E00E94110382E00E94310380E480931E
S1130910600082E4809361008FE080936200109213
S113092063001092640010926500109266001092A9
S1130930670083E00E94F102809168008830B9F476
S11309400E94D8020E94D8028EE690E00E94C5025E
S113095081E00E94F1020E94F90385E0809368001F
S113096083E00E94110381E00E94110308950E9414
S1130970F90383E00E941103809168008830F1F448
S11309800E94D8028EE690E00E94C50283E00E9495
S1130990F10281E00E94F1022FEF83E294EF2150F3
S11309A080409040E1F700C0000083E00E94110302
S11309B081E00E94110385E080936800089500247B
S11309C0A7FD00942A0F301D401D501D601D701D91
S11309D0801D901D08952A153B054C055D056E0587
S10F09E07F05800791070895F894FFCF6D
S11309EC40420F0000000000054361727300506523
S10D09FC646573747269616E000093
S9030000FC
