:100000000C942A000C9447000C9484040C94470030
:100010000C9447000C9447000C9447000C94470044
:100020000C9447000C9447000C9447000C94470034
:100030000C9447000C9447000C9447000C94470024
:100040000C9447000C9447000C9447000C94470014
:100050000C94470011241FBECFE5D8E0DEBFCDBF12
:1000600010E0A0E6B0E0E8E8F9E002C005900D92EB
:10007000AA37B107D9F720E0AAE7B0E001C01D9286
:10008000A438B207E1F70E949F030C94C2040C94B9
:1000900000000E9474040E9478048AE491E00E94A7
:1000A0006F040E94E1010E94B60263E083E00C94B9
:1000B0003D01AF92BF92CF92DF92EF92FF920F93EA
:1000C0001F9310927C0010927D0010927E0010927F
:1000D0007F00109280001092810010928200109296
:1000E000830020917C0030917D0040917E005091F2
:1000F0007F006091800070918100809182009091DA
:100100008300A0906000B0906100C0906200D09029
:100110006300E0906400F09065000091660010912B
:1001200067000E94B90424F520917C0030917D0085
:1001300040917E0050917F0060918000709181001D
:100140008091820090918300A1E00E94AD042093F1
:100150007C0030937D0040937E0050937F0060933D
:100160008000709381008093820090938300B9CFC8
:1001700080E48093600082E4809361008FE080934C
:100180006200109263001092640010926500109259
:100190006600109267001F910F91FF90EF90DF9023
:1001A000CF90BF90AF9008950E94B30289E690E08F
:1001B0000E94A00280E00E94CA020E94590080E0D2
:1001C0000E94E10282E00E94F80280E480936000D5
:1001D00082E4809361008FE080936200109263005C
:1001E00010926400109265001092660010926700F1
:1001F00083E00E94CA02809168008830B1F40E94B6
:10020000B3020E94B3028EE690E00E94A00281E059
:100210000E94CA020E94590085E08093680083E032
:100220000E94E10281E00C94E1020E94590083E007
:100230000E94E102809168008830F1F40E94B302CC
:100240008EE690E00E94A00283E00E94CA0281E054
:100250000E94CA022FEF83E294EF21508040904029
:10026000E1F700C0000083E00E94E10281E00E940B
:10027000E10285E0809368000895CF93DF93C82F53
:10028000D62F40E00E94A4036D2F8C2FDF91CF91D9
:100290000C946E0480916800883081F010926000A8
:1002A000109261001092620010926300109264003C
:1002B00010926500109266001092670088E08093AB
:1002C00068000895CF93C82F40E063E080E00E946B
:1002D00009048FE99FE00197F1F700C00000C4FB1B
:1002E000442740F960E081E00E940904C5FB4427EF
:1002F00040F961E081E00E940904C6FB442740F90F
:1003000062E081E00E9409044C2F441F4427441FEF
:1003100064E081E00E9409048FE99FE00197F1F712
:1003200000C0000041E062E080E00E9409048FE923
:100330009FE00197F1F700C0000040E062E080E03C
:100340000E9409048FE99FE00197F1F700C00000C7
:100350004C2F417060E081E00E940904C1FB4427FA
:1003600040F961E081E00E940904C2FB442740F9A2
:1003700062E081E00E940904C3FB442740F964E085
:1003800081E00E9409048FE99FE00197F1F700C026
:10039000000041E062E080E00E9409048FE99FE0F4
:1003A0000197F1F700C0000040E062E080E00E94A9
:1003B00009048FE19EE40197F1F700C00000CF919E
:1003C000089541E063E080E00E94A40341E062E020
:1003D00080E00E94A40341E060E081E00E94A40369
:1003E00041E061E081E00E94A40341E062E081E03D
:1003F0000E94A40341E064E081E00E94A4038FE92D
:100400009FE00197F1F700C0000088E20E946201BE
:100410008FE99FE00197F1F700C0000081E00E94A2
:1004200062018FE99FE00197F1F700C000008FE0C3
:100430000E9462018FE99FE00197F1F700C0000080
:100440000895CF93C82F41E063E080E00E94090443
:100450008FE99FE00197F1F700C00000C4FB44273B
:1004600040F960E081E00E940904C5FB442740F99F
:1004700061E081E00E940904C6FB442740F962E084
:1004800081E00E9409044C2F441F4427441F64E06C
:1004900081E00E9409048FE99FE00197F1F700C015
:1004A000000041E062E080E00E9409048FE99FE0E3
:1004B0000197F1F700C0000040E062E080E00E9498
:1004C00009048FE99FE00197F1F700C000004C2F6D
:1004D000417060E081E00E940904C1FB442740F9BB
:1004E00061E081E00E940904C2FB442740F962E018
:1004F00081E00E940904C3FB442740F964E081E0E5
:100500000E9409048FE99FE00197F1F700C0000005
:1005100041E062E080E00E9409048FE99FE00197DA
:10052000F1F700C0000040E062E080E00E940904B2
:100530008FE19EE40197F1F700C00000CF9108958C
:100540000F931F93CF938C01C0E0F801EC0FF11DC6
:100550008081882321F00E942102CF5FF6CFCF91C6
:100560001F910F91089581E00C94620141E064E0D5
:1005700080E00E94A40341E067E081E00E94A403C0
:1005800041E065E080E00E94A40341E066E080E095
:100590000C94A403813069F028F0823069F0833034
:1005A00021F0089541E064E009C041E067E081E0A6
:1005B00006C041E065E002C041E066E080E00C94E6
:1005C0000904813069F028F0823069F0833021F02D
:1005D000089540E064E009C040E067E081E006C0C3
:1005E00040E065E002C040E066E080E00C94090471
:1005F000CF93DF93813009F454C070F0823009F456
:1006000076C0833009F098C041E067E081E00E9445
:10061000A403CCE0D0E026C041E064E080E00E948A
:10062000A403CCE0D0E041E064E080E00E94090453
:100630002FEF83EC99E0215080409040E1F700C01B
:10064000000040E064E080E00E9409042FEF83ECAA
:1006500099E0215080409040E1F700C000002197D0
:1006600011F76AC041E067E081E00E9409042FEFC2
:1006700083EC99E0215080409040E1F700C00000F9
:1006800040E067E081E00E9409042FEF83EC99E0ED
:10069000215080409040E1F700C00000219711F701
:1006A0004BC041E065E080E00E94A403CCE0D0E0D4
:1006B00041E065E080E00E9409042FEF83EC99E0BF
:1006C000215080409040E1F700C0000040E065E02C
:1006D00080E00E9409042FEF83EC99E021508040D4
:1006E0009040E1F700C00000219711F725C041E0DC
:1006F00066E080E00E94A403CCE0D0E041E066E048
:1007000080E00E9409042FEF83EC99E021508040A3
:100710009040E1F700C0000040E066E080E00E9409
:1007200009042FEF83EC99E0215080409040E1F7DD
:1007300000C00000219711F7DF91CF9108950E942A
:1007400049000E94D400FDCF442379F1413009F0E3
:100750005FC0813079F028F08230A9F08330E1F079
:1007600008952AB381E090E001C0880F6A95EAF706
:10077000822B2CC027B381E090E001C0880F6A95DE
:10078000EAF7822B2EC024B381E090E001C0880FED
:100790006A95EAF7822B30C021B381E090E001C076
:1007A000880F6A95EAF7822B32C0813089F028F0F1
:1007B0008230C9F0833011F108952AB381E090E0CE
:1007C00001C0880F6A95EAF7809582238ABB089555
:1007D00027B381E090E001C0880F6A95EAF7809521
:1007E000822387BB089524B381E090E001C0880F85
:1007F0006A95EAF78095822384BB089521B381E04E
:1008000090E001C0880F6A95EAF78095822381BB4A
:100810000895442379F1413009F05FC0813079F0C7
:1008200028F08230A9F08330E1F008952BB381E005
:1008300090E001C0880F6A95EAF7822B2CC028B39C
:1008400081E090E001C0880F6A95EAF7822B2EC004
:1008500025B381E090E001C0880F6A95EAF7822B0A
:1008600030C022B381E090E001C0880F6A95EAF7BA
:10087000822B32C0813089F028F08230C9F0833079
:1008800011F108952BB381E090E001C0880F6A95C3
:10089000EAF7809582238BBB089528B381E090E02E
:1008A00001C0880F6A95EAF78095822388BB089576
:1008B00025B381E090E001C0880F6A95EAF7809542
:1008C000822385BB089522B381E090E001C0880FA8
:1008D0006A95EAF78095822382BB089508959093E4
:1008E0007B0080937A0008958FB780688FBF08954A
:1008F0000E9474048BB780688BBF85B7886085BF02
:1009000085B78B7F85BF08951F920F920FB60F9208
:1009100011242F933F934F935F936F937F938F9304
:100920009F93AF93BF93EF93FF93E0917A00F09181
:100930007B00309709F00995FF91EF91BF91AF913E
:100940009F918F917F916F915F914F913F912F91E7
:100950000F900FBE0F901F9018950024A7FD0094D4
:100960002A0F301D401D501D601D701D801D901DE3
:1009700008952A153B054C055D056E057F0580072A
:0809800091070895F894FFCFE0
:1009880040420F000000000005436172730050658B
:0A099800646573747269616E0000FB
:00000001FF
